:100000000C945F000C9487000C9487000C9487007C
:100010000C9487000C9487000C9487000C94870044
:100020000C9487000C9487000C9487000C94870034
:100030000C9487000C9487000C9487000C94870024
:100040000C9439020C9487000C945C050C949F0569
:100050000C9487000C9487000C9487000C94870004
:100060000C9487000C948700000000070002010038
:100070000003040600000000000000000102040864
:100080001020408001020408102001020408102002
:10009000040404040404040402020202020203032E
:1000A0000303030300000000250028002B000000CC
:1000B0000000240027002A009B005B06A1001124F9
:1000C0001FBECFEFD8E0DEBFCDBF11E0A0E0B1E0B2
:1000D000E4E7F2E102C005900D92AC35B107D9F723
:1000E00022E0ACE5B1E001C01D92AE31B207E1F70C
:1000F00010E0CCEBD0E004C02297FE010E94290959
:10010000C83BD107C9F70E94BD040C94E9080C94C0
:10011000000040E052EC61E070E080E791E00E9476
:10012000DA0561E0809103010E94FE0261E08091A6
:1001300002010C94FE026CE271E08CE591E00C94FB
:1001400031048CE591E00C94C3032F923F924F92BF
:100150005F926F927F928F929F92AF92BF92CF9257
:10016000DF92EF92FF920F931F93CF93DF93CDB760
:10017000DEB727970FB6F894DEBF0FBECDBF80E77E
:1001800091E00E94CA04181619060CF059C14AE001
:1001900060E771E0CE0101960E949B03BE016F5F94
:1001A0007F4F8CE591E00E944804CE0101960E94A9
:1001B000C3036AE071E08CE591E00E949E0488230D
:1001C00041F084E190E0909301018093000161E0AF
:1001D0002AC063E171E08CE591E00E949E048111E8
:1001E0001BC0212C312C31E8C32E37E5D32E3EE144
:1001F000E32E3DE2F32E41E9842E47E5942E4EE1B5
:10020000A42E4DE2B42E50E8452E57E5552E5EE162
:10021000652E5DE2752E97C083E090E0909301011A
:100220008093000160E0809102010E94370308C1C1
:1002300065E271E08CE591E00E949E04882309F458
:1002400098C040926301509264016092650170927F
:10025000660161E0809103010E9437038CED90E01C
:100260000E948F0260E0809103010E94370383E7C0
:100270009AE00E948F0200E210E080916301909169
:100280006401A0916501B091660161E0B7FFB6C05D
:10029000809103010E9437038CED90E00E948F0251
:1002A00060E0809103010E94370388E795E00E9497
:1002B0008F0261E0809103010E9437038CED90E092
:1002C0000E948F0260E0809103010E9437038EE557
:1002D00091E00E948F028091630190916401A0914E
:1002E0006501B0916601880F991FAA1FBB1F8093FB
:1002F000630190936401A0936501B093660101507E
:1003000011090115110509F0B8CF61E080910301D1
:100310000E9437038CED90E00E948F0260E0809194
:1003200003010E94370388E699E20E948F0261E090
:10033000809103010E9437038CED90E00E948F02B0
:100340009FEF291A390A8091000190910101281626
:1003500039060CF075C06EE171E08CE591E00E9409
:100360009E04882309F464CF80E997E5AEE1BDE2FD
:100370003CC06DE271E08CE591E00E949E04882310
:1003800049F08092630190926401A0926501B0925D
:1003900066015FCF64E371E08CE591E00E949E040A
:1003A000882349F0C0926301D0926401E092650114
:1003B000F09266014ECF6CE371E08CE591E00E9413
:1003C0009E04882329F082E997E5AEE1BDE20DC0E5
:1003D00063E471E08CE591E00E949E04882309F4B7
:1003E00038CF82E897E5AEE1BDE280936301909358
:1003F0006401A0936501B09366012BCF8091030146
:100400000E9437038CED90E00E948F0260E08091A3
:1004100003010E9437038EE591E00E948F0261E0A4
:10042000809103010E9437038CED90E00E948F02BF
:1004300060E0809103010E94370388E795E049CF8F
:1004400027960FB6F894DEBF0FBECDBFDF91CF91D8
:100450001F910F91FF90EF90DF90CF90BF90AF90E2
:100460009F908F907F906F905F904F903F902F90D4
:1004700008951F920F920FB60F9211242F933F935E
:100480008F939F93AF93BF9380916801909169017F
:10049000A0916A01B0916B013091670123E0230FB5
:1004A0002D3720F40196A11DB11D05C026E8230FAC
:1004B0000296A11DB11D209367018093680190935E
:1004C0006901A0936A01B0936B0180916C019091D6
:1004D0006D01A0916E01B0916F010196A11DB11D3A
:1004E00080936C0190936D01A0936E01B0936F01A6
:1004F000BF91AF919F918F913F912F910F900FBE20
:100500000F901F9018952FB7F89460916801709123
:10051000690180916A0190916B012FBF0895019745
:10052000009739F0880F991F880F991F029701973C
:10053000F1F70895789484B5826084BD84B58160B4
:1005400084BD85B5826085BD85B5816085BDEEE6DB
:10055000F0E0808181608083E1E8F0E010828081BA
:1005600082608083808181608083E0E8F0E0808128
:1005700081608083E1EBF0E0808184608083E0EB48
:10058000F0E0808181608083EAE7F0E08081846030
:10059000808380818260808380818160808380818C
:1005A000806880831092C1000895833081F028F420
:1005B000813099F08230A1F008958630A9F087301B
:1005C000B9F08430D1F4809180008F7D03C0809198
:1005D00080008F7780938000089584B58F7702C064
:1005E00084B58F7D84BD08958091B0008F7703C05E
:1005F0008091B0008F7D8093B0000895CF93DF93FA
:1006000090E0FC01E458FF4F2491FC01E057FF4FBC
:100610008491882349F190E0880F991FFC01E255ED
:10062000FF4FA591B4918C559F4FFC01C591D4917A
:100630009FB7611108C0F8948C91209582238C9308
:10064000888182230AC0623051F4F8948C91322F51
:10065000309583238C938881822B888304C0F894FF
:100660008C91822B8C939FBFDF91CF9108950F9334
:100670001F93CF93DF931F92CDB7DEB7282F30E0C3
:10068000F901E859FF4F8491F901E458FF4F1491A3
:10069000F901E057FF4F04910023C9F0882321F0AE
:1006A00069830E94D5026981E02FF0E0EE0FFF1F01
:1006B000EC55FF4FA591B4919FB7F8948C916111BF
:1006C00003C01095812301C0812B8C939FBF0F9095
:1006D000DF91CF911F910F9108950F931F93CF93A7
:1006E000DF93EC010E948302688779878A879B8762
:1006F000E881F9810680F781E02DCE01099597FF09
:1007000015C00E948302088519852A853B85601BD8
:10071000710B820B930B0C811D812E813F81601721
:1007200071078207930720F38FEF9FEFDF91CF913F
:100730001F910F910895EF92FF920F931F93CF9304
:10074000DF93EC018B01E42E6CE271E00E94310436
:10075000C8010E946D03FF24E7FCF09497FD0BC0D5
:100760008E159F0541F0682FCE010E948B04C801B1
:100770000E946D03F3CFCE01DF91CF911F910F91B6
:10078000FF90EF900895FC01808191810C943208D4
:10079000CF93DF93EC0188819981009711F00E943B
:1007A0003208198218821D821C821B821A82DF91F4
:1007B000CF9108950F931F93CF93DF93EC018B019B
:1007C0006F5F7F4F888199810E94B106009731F059
:1007D000998388831B830A8381E001C080E0DF91D5
:1007E000CF911F910F910895CF93DF93EC018881F2
:1007F0009981892B29F08A819B818617970760F45C
:10080000CE010E94DA03882341F08C819D81892BDF
:1008100019F4E881F981108281E0DF91CF91089588
:10082000EF92FF920F931F93CF93DF93EC017B0125
:100830008A01BA010E94F403811104C0CE010E9412
:10084000C80307C01D830C83B701888199810E946A
:10085000FE08CE01DF91CF911F910F91FF90EF9095
:100860000895FC0111821082138212821582148273
:1008700016826115710559F0FB0101900020E9F71E
:10088000AF0141505109461B570B0C9410040895B9
:10089000CF93DF93EC01FB018617970761F060812E
:1008A00071816115710529F0448155810E94100400
:1008B00002C00E94C803CE01DF91CF910895EF924C
:1008C000FF920F931F93CF93DF93EC017B010C8179
:1008D0001D816115710511F480E016C041155105A7
:1008E00091F0040F151FB8010E94F4038823A1F3AF
:1008F000288139818C819D81B701820F931F0E94CD
:10090000FE081D830C8381E0DF91CF911F910F9131
:10091000FF90EF900895CF93DF9300D0CDB7DEB76F
:1009200069831A8241E050E0BE016F5F7F4F0E94F1
:100930005F040F900F90DF91CF910895FC01248107
:100940003581232B31F421E061157105A1F0FB0104
:1009500008C0FC01808191816115710531F421E0AD
:10096000FC018081882339F005C00E94F50821E050
:10097000892B09F020E0822F08950E949A020E949C
:100980008900C6E9D5E00E94A5002097E1F30E9406
:100990009605F9CFFC0124853585F901E05CFF4F10
:1009A00080819181329620813181821B930B8F73DC
:1009B00099270895FC0184859585FC01E05CFF4F33
:1009C000408151813296208131814217530741F095
:1009D0000190F081E02DE80FF91F808190E00895EB
:1009E0008FEF9FEF0895FC0184859585FC01E05C05
:1009F000FF4F408151813296208131814217530748
:100A000079F0A081B181A80FB91F8C91208131812B
:100A10002F5F3F4F2F7333273183208390E008955A
:100A20008FEF9FEF0895FC0181A1882329F0A4890D
:100A3000B5898C9186FFFBCF11A20895CF93DF93E8
:100A4000FC0126853785D901A05CBF4F8D919C9113
:100A5000119701968F739927E901CE5BDF4F48818B
:100A6000598184179507D9F30D90BC91A02DA20F41
:100A7000B31F6C93A685B785A05CBF4F11969C935E
:100A80008E93A689B7892C9181E090E0078C02C0F3
:100A9000880F991F0A94E2F7282B2C9381E081A3F9
:100AA0000488F589E02D80818064808381E090E076
:100AB000DF91CF91089508951F920F920FB60F9274
:100AC00011242F933F934F938F939F93EF93FF9313
:100AD0008091C00082FD1CC04091C600809116022A
:100AE0009091170201968F739927209118023091E7
:100AF00019028217930771F0E0911602F091170224
:100B0000EA52FE4F4083909317028093160202C070
:100B10008091C600FF91EF919F918F914F913F91EE
:100B20002F910F900FBE0F901F90189580E791E0C6
:100B30000E94CA04892B11F00C945B0508951F9242
:100B40000F920FB60F9211242F933F938F939F9381
:100B5000EF93FF932091D2013091D3018091D40182
:100B60009091D5012817390731F48091C1008F7D0C
:100B70008093C10014C0E091D401F091D501EE56EC
:100B8000FE4F20818091D4019091D50101968F7301
:100B900099279093D5018093D4012093C600FF91AB
:100BA000EF919F918F913F912F910F900FBE0F90DA
:100BB0001F901895CF92DF92EF92FF92CF93DF9321
:100BC000EC016A017B01411581EE58076105710551
:100BD000F9F0EC89FD8981E090E008A002C0880F5F
:100BE000991F0A94E2F7808360E079E08DE390E05A
:100BF000A70196010E9405092150310941095109B7
:100C00005695479537952795211580E1380798F037
:100C1000EC89FD89108260E874E88EE190E0A7011C
:100C200096010E9405092150310941095109569543
:100C3000479537952795E889F9893083EA89FB89B3
:100C4000208319A2EE89FF89408181E090E09C0118
:100C50000C8C02C0220F331F0A94E2F7422B408310
:100C6000EE89FF8940819C010D8C02C0220F331F49
:100C70000A94E2F7422B4083EE89FF8940819C0170
:100C80000E8C02C0220F331F0A94E2F7422B4083DE
:100C9000EE89FF8920810F8C02C0880F991F0A946A
:100CA000E2F7809582238083DF91CF91FF90EF90D0
:100CB000DF90CF900895109273011092720188EE28
:100CC00093E0A0E0B0E08093740190937501A0934D
:100CD0007601B09377018FE491E090937101809356
:100CE000700186ED91E090937D0180937C0182E913
:100CF00091E090937F0180937E0185EC90E090934A
:100D000081018093800184EC90E090938301809333
:100D1000820180EC90E0909385018093840181ECC6
:100D200090E0909387018093860182EC90E090930D
:100D300089018093880186EC90E090938B018093E9
:100D40008A0184E080938C0183E080938D0187E0A9
:100D500080938E0185E080938F0181E080939001E4
:100D600008956F927F928F929F92AF92BF92CF928F
:100D7000DF92EF92FF920F931F93CF93DF93EC01DB
:100D8000CB01209781F4DF91CF911F910F91FF90BC
:100D9000EF90DF90CF90BF90AF909F908F907F901B
:100DA0006F900C949A07FE01E60FF71F9E012250E8
:100DB0003109E217F30708F4ACC0D9010D911C9179
:100DC000119706171707B8F00530110508F49FC0F2
:100DD000A801445051094617570708F498C002501B
:100DE0001109061B170B019311936D937C93CF018F
:100DF0000E9432088CC05B01A01AB10A4E01800E1D
:100E0000911EA0911C02B0911D02612C712C60E01A
:100E100070E0109709F449C0A815B905C9F5ED901F
:100E2000FC901197670142E0C40ED11CCA14DB0488
:100E300078F147018A189B08640142E0C40ED11C76
:100E40001296BC9012971396AC91B5E0CB16D104D4
:100E500040F0B282A38391828082D9018D939C93CA
:100E600009C00E5F1F4F0E0D1F1DF9011183008376
:100E7000EB2DFA2F6115710531F0DB011396FC9310
:100E8000EE93129744C0F0931D02E0931C023FC002
:100E90006D917C9111976616770608F43B01BD01B0
:100EA00012960D90BC91A02DB4CF60911A02709152
:100EB0001B0268157905E9F468167906D0F44091AB
:100EC0000401509105014115510541F44DB75EB73C
:100ED0006091080170910901461B570BE417F50753
:100EE000C0F4F0931B02E0931A02F901918380830E
:100EF0000EC00E949A077C01009759F0A801BE011C
:100F00000E94EC08CE010E943208C70104C0CE0145
:100F100002C080E090E0DF91CF911F910F91FF9090
:100F2000EF90DF90CF90BF90AF909F908F907F9089
:100F30006F900895CF93DF938230910510F482E093
:100F400090E0E0911C02F0911D0220E030E0A0E072
:100F5000B0E0309739F14081518148175907B8F016
:100F60004817590771F482819381109729F01396DD
:100F70009C938E9312972CC090931D0280931C0219
:100F800027C02115310531F04217530718F0A90188
:100F9000DB0101C0EF019A01BD01DF010280F38195
:100FA000E02DD7CF21153105F9F0281B390B24305E
:100FB000310580F48A819B816115710521F0FB0167
:100FC0009383828304C090931D0280931C02FE01D0
:100FD000329644C0FE01E20FF31F81939193225099
:100FE0003109398328833AC020911A0230911B02BB
:100FF000232B41F4209106013091070130931B020D
:1010000020931A0220910401309105012115310528
:1010100041F42DB73EB74091080150910901241BBE
:10102000350BE0911A02F0911B02E217F307A0F4CE
:101030002E1B3F0B2817390778F0AC014E5F5F4F2E
:101040002417350748F04E0F5F1F50931B02409343
:101050001A028193919302C0E0E0F0E0CF01DF91AA
:10106000CF910895CF93DF93009709F487C0FC01D7
:10107000329713821282C0911C02D0911D022097D8
:1010800081F420813181280F391F80911A029091BB
:101090001B028217930779F5F0931B02E0931A0263
:1010A0006DC0DE0120E030E0AE17BF0750F41296AD
:1010B0004D915C9113979D014115510509F1DA019C
:1010C000F3CFB383A28340815181840F951F8A1788
:1010D0009B0771F48D919C911197840F951F029637
:1010E0009183808312968D919C9113979383828331
:1010F0002115310529F4F0931D02E0931C023EC036
:10110000D9011396FC93EE9312974D915D91A40F24
:10111000B51FEA17FB0779F480819181840F951F31
:101120000296D90111969C938E9382819381139696
:101130009C938E931297E0E0F0E08A819B81009768
:1011400019F0FE01EC01F9CFCE0102962881398118
:10115000820F931F20911A0230911B022817390722
:1011600069F4309729F410921D0210921C0202C0FB
:1011700013821282D0931B02C0931A02DF91CF9187
:101180000895CF92DF92EF92FF920F931F93CF9328
:10119000DF936C017A01EB01E60EF71E00E010E030
:1011A000CE15DF0561F06991D601ED91FC910190BA
:1011B000F081E02DC6010995080F191FF1CFC80174
:1011C000DF91CF911F910F91FF90EF90DF90CF9023
:1011D0000895F8940C942D09FB01DC0102C00190E4
:1011E0000D9241505040D8F70895FB01DC018D91DC
:1011F000019080190110D9F3990B0895FB01DC01CE
:1012000001900D920020E1F70895A1E21A2EAA1B89
:10121000BB1BFD010DC0AA1FBB1FEE1FFF1FA217A6
:10122000B307E407F50720F0A21BB30BE40BF50BA3
:10123000661F771F881F991F1A9469F7609570952C
:10124000809590959B01AC01BD01CF010895EE0FF3
:10125000FF1F0590F491E02D099410E0CCEBD0E055
:1012600004C0FE010E9429092296CE3BD107C9F78E
:04127000F894FFCF20
:1012740003000D0800001E0280004D6F646550726B
:101284006F67004D6F64654E6F726D616C00444909
:101294004F314F4E0044494F314F46460044494F69
:1012A400324F4E0044494F324F46460044494F3373
:1012B4004F4E0044494F334F464600000000001E85
:0C12C40005C108CA04F304DA0413050095
:00000001FF
