:100000000C945F000C9487000C9487000C9487007C
:100010000C9487000C9487000C9487000C94870044
:100020000C9487000C9487000C9487000C94870034
:100030000C9487000C9487000C9487000C94870024
:100040000C94F9000C9487000C941D050C94600529
:100050000C9487000C9487000C9487000C94870004
:100060000C9487000C948700000000070002010038
:100070000003040600000000000000000102040864
:100080001020408001020408102001020408102002
:10009000040404040404040402020202020203032E
:1000A0000303030300000000250028002B000000CC
:1000B0000000240027002A0095001C069B00112444
:1000C0001FBECFEFD8E0DEBFCDBF11E0A0E0B1E0B2
:1000D000E6EAF1E102C005900D92AA32B107D9F724
:1000E00021E0AAE2B1E001C01D92A83EB207E1F70B
:1000F00010E0CCEBD0E004C02297FE010E94C208C1
:10010000C83BD107C9F70E947E040C9482080C9466
:10011000000040E052EC61E070E08AE391E00E9470
:100120009B0561E08DE00C94FC0163E171E08AE2E3
:1001300091E00C94E1038AE291E00C947303CF9375
:10014000DF93CDB7DEB727970FB6F894DEBF0FBEAB
:10015000CDBF8AE391E00E948B0418161906D4F5EE
:100160004AE06AE371E0CE0101960E944B03BE01B2
:100170006F5F7F4F8AE291E00E94F803CE01019603
:100180000E9473036AE271E08AE391E00E94F9023F
:1001900066E071E08AE291E00E944E04882341F01B
:1001A0006AE071E08AE391E00E940B0361E00FC016
:1001B0006FE071E08AE291E00E944E04882351F0E2
:1001C00064E171E08AE391E00E940B0360E08DE05E
:1001D0000E94350264E670E080E090E00E947201C7
:1001E00027960FB6F894DEBF0FBECDBFDF91CF913B
:1001F00008951F920F920FB60F9211242F933F93E1
:100200008F939F93AF93BF9380913201909133016D
:10021000A0913401B09135013091310123E0230FD9
:100220002D3720F40196A11DB11D05C026E8230F2E
:100230000296A11DB11D209331018093320190934C
:100240003301A0933401B093350180913601909130
:100250003701A0913801B09139010196A11DB11D5E
:100260008093360190933701A0933801B093390100
:10027000BF91AF919F918F913F912F910F900FBEA2
:100280000F901F9018952FB7F894609132017091DC
:10029000330180913401909135012FBF08953FB70C
:1002A000F8948091360190913701A0913801B09176
:1002B000390126B5A89B05C02F3F19F00196A11D55
:1002C000B11D3FBF6627782F892F9A2F620F711DAE
:1002D000811D911D42E0660F771F881F991F4A9567
:1002E000D1F70895CF92DF92EF92FF92CF93DF93F1
:1002F0006B017C010E944F01EB01C114D104E104A8
:10030000F10479F00E944F016C1B7D0B683E734035
:10031000A0F381E0C81AD108E108F108C851DC4F08
:10032000ECCFDF91CF91FF90EF90DF90CF900895C9
:10033000789484B5826084BD84B5816084BD85B5C0
:10034000826085BD85B5816085BDEEE6F0E0808187
:1003500081608083E1E8F0E01082808182608083A8
:10036000808181608083E0E8F0E08081816080832B
:10037000E1EBF0E0808184608083E0EBF0E080815D
:1003800081608083EAE7F0E08081846080838081FF
:1003900082608083808181608083808180688083A7
:1003A0001092C1000895833081F028F4813099F0D3
:1003B0008230A1F008958630A9F08730B9F08430FA
:1003C000D1F4809180008F7D03C0809180008F7771
:1003D00080938000089584B58F7702C084B58F7DA7
:1003E00084BD08958091B0008F7703C08091B000E4
:1003F0008F7D8093B0000895CF93DF9390E0FC0150
:10040000E458FF4F2491FC01E057FF4F849188236B
:1004100049F190E0880F991FFC01E255FF4FA5912B
:10042000B4918C559F4FFC01C591D4919FB7611138
:1004300008C0F8948C91209582238C938881822324
:100440000AC0623051F4F8948C91322F3095832396
:100450008C938881822B888304C0F8948C91822BA2
:100460008C939FBFDF91CF9108950F931F93CF93EC
:10047000DF931F92CDB7DEB7282F30E0F901E8599E
:10048000FF4F8491F901E458FF4F1491F901E057AF
:10049000FF4F04910023C9F0882321F069830E9453
:1004A000D3016981E02FF0E0EE0FFF1FEC55FF4F05
:1004B000A591B4919FB7F8948C91611103C01095E8
:1004C000812301C0812B8C939FBF0F90DF91CF912F
:1004D0001F910F910895CF92DF92EF92FF920F93A9
:1004E0001F93CF93DF936C017A01EB01E60EF71EA9
:1004F00000E010E0CE15DF0561F06991D601ED91C5
:10050000FC910190F081E02DC6010995080F191F9B
:10051000F1CFC801DF91CF911F910F91FF90EF9024
:10052000DF90CF9008956115710581F0DB010D908A
:100530000020E9F7AD0141505109461B570BDC0182
:10054000ED91FC910280F381E02D099480E090E030
:100550000895AF92BF92CF92DF92EF92FF920F93E6
:100560001F93CF93DF937C016B01C0E0D0E000E0EC
:1005700010E0D60114968D919C911597C817D90754
:1005800088F4D701ED91FC91A080B180BE01C60135
:100590000E946D04682FC701F5010995080F191F06
:1005A0002196E7CFC801DF91CF911F910F91FF9066
:1005B000EF90DF90CF90BF90AF900895DC01ED9168
:1005C000FC910190F081E02D09940F931F93CF933C
:1005D000DF93EC016DE00E94DE028C016AE0CE0147
:1005E0000E94DE02800F911FDF91CF911F910F912A
:1005F00008950F931F93CF93DF93EC010E94A902FC
:100600008C01CE010E94E502800F911FDF91CF91F6
:100610001F910F9108950F931F93CF93DF93EC01D8
:100620000E9493028C01CE010E94E502800F911F6F
:10063000DF91CF911F910F9108950F931F93CF9347
:10064000DF93EC010E944301688779878A879B8743
:10065000E881F9810680F781E02DCE01099597FFA9
:1006600015C00E944301088519852A853B85601BBA
:10067000710B820B930B0C811D812E813F816017C2
:1006800071078207930720F38FEF9FEFDF91CF91E0
:100690001F910F910895EF92FF920F931F93CF93A5
:1006A000DF93EC018B01E42E63E171E00E94E10332
:1006B000C8010E941D03FF24E7FCF09497FD0BC0C6
:1006C0008E159F0541F0682FCE010E943B04C801A2
:1006D0000E941D03F3CFCE01DF91CF911F910F91A7
:1006E000FF90EF900895FC01808191810C94F307B5
:1006F000CF93DF93EC0188819981009711F00E94DC
:10070000F307198218821D821C821B821A82DF91D4
:10071000CF9108950F931F93CF93DF93EC018B013B
:100720006F5F7F4F888199810E947206009731F038
:10073000998388831B830A8381E001C080E0DF9175
:10074000CF911F910F910895CF93DF93EC01888192
:100750009981892B29F08A819B818617970760F4FC
:10076000CE010E948A03882341F08C819D81892BD0
:1007700019F4E881F981108281E0DF91CF91089529
:10078000EF92FF920F931F93CF93DF93EC017B01C6
:100790008A01BA010E94A403811104C0CE010E9403
:1007A000780307C01D830C83B701888199810E945B
:1007B0009708CE01DF91CF911F910F91FF90EF909D
:1007C0000895FC0111821082138212821582148214
:1007D00016826115710559F0FB0101900020E9F7BF
:1007E000AF0141505109461B570B0C94C0030895AB
:1007F000CF93DF93EC01FB018617970761F06081CF
:1008000071816115710529F0448155810E94C003F1
:1008100002C00E947803CE01DF91CF910895EF923C
:10082000FF920F931F93CF93DF93EC017B010C8119
:100830001D816115710511F480E016C04115510547
:1008400091F0040F151FB8010E94A4038823A1F39F
:10085000288139818C819D81B701820F931F0E946D
:1008600097081D830C8381E0DF91CF911F910F9139
:10087000FF90EF900895CF93DF9300D0CDB7DEB710
:1008800069831A8241E050E0BE016F5F7F4F0E9492
:100890000F040F900F90DF91CF910895FC012481F8
:1008A0003581232B31F421E061157105A1F0FB01A5
:1008B00008C0FC01808191816115710531F421E04E
:1008C000FC018081882339F005C00E948E0821E058
:1008D000892B09F020E0822F0895FC0124813581C5
:1008E0006217730748F480819181009729F0FC0119
:1008F000E60FF71F8081089580E008950E94980117
:100900000E948900C7E5D5E00E949F002097E1F38F
:100910000E945705F9CFFC0124853585F901E05C7B
:10092000FF4F80819181329620813181821B930B10
:100930008F7399270895FC0184859585FC01E05CFF
:10094000FF4F4081518132962081318142175307F8
:1009500041F00190F081E02DE80FF91F808190E0D7
:1009600008958FEF9FEF0895FC0184859585FC0124
:10097000E05CFF4F408151813296208131814217E6
:10098000530779F0A081B181A80FB91F8C91208104
:1009900031812F5F3F4F2F7333273183208390E0C6
:1009A00008958FEF9FEF0895FC0181A1882329F01E
:1009B000A489B5898C9186FFFBCF11A20895CF93AE
:1009C000DF93FC0126853785D901A05CBF4F8D914F
:1009D0009C91119701968F739927E901CE5BDF4FA8
:1009E0004881598184179507D9F30D90BC91A02DAA
:1009F000A20FB31F6C93A685B785A05CBF4F11965D
:100A00009C938E93A689B7892C9181E090E0078C06
:100A100002C0880F991F0A94E2F7282B2C9381E0DB
:100A200081A30488F589E02D80818064808381E042
:100A300090E0DF91CF91089508951F920F920FB625
:100A40000F9211242F933F934F938F939F93EF9384
:100A5000FF938091C00082FD1CC04091C600809130
:100A6000E0019091E10101968F7399272091E201B5
:100A70003091E3018217930771F0E091E001F0916A
:100A8000E101E056FE4F40839093E1018093E00145
:100A900002C08091C600FF91EF919F918F914F917D
:100AA0003F912F910F900FBE0F901F9018958AE3E2
:100AB00091E00E948B04892B11F00C941C05089581
:100AC0001F920F920FB60F9211242F933F938F9383
:100AD0009F93EF93FF9320919C0130919D01809112
:100AE0009E0190919F012817390731F48091C10030
:100AF0008F7D8093C10014C0E0919E01F0919F0111
:100B0000E45AFE4F208180919E0190919F010196B1
:100B10008F73992790939F0180939E012093C60025
:100B2000FF91EF919F918F913F912F910F900FBE69
:100B30000F901F901895CF92DF92EF92FF92CF9374
:100B4000DF93EC016A017B01411581EE58076105D5
:100B50007105F9F0EC89FD8981E090E008A002C000
:100B6000880F991F0A94E2F7808360E079E08DE3B3
:100B700090E0A70196010E949E0821503109410989
:100B800051095695479537952795211580E13807E6
:100B900098F0EC89FD89108260E874E88EE190E0BD
:100BA000A70196010E949E0821503109410951096F
:100BB0005695479537952795E889F9893083EA89CD
:100BC000FB89208319A2EE89FF89408181E090E0B2
:100BD0009C010C8C02C0220F331F0A94E2F7422BB7
:100BE0004083EE89FF8940819C010D8C02C0220F59
:100BF000331F0A94E2F7422B4083EE89FF8940813C
:100C00009C010E8C02C0220F331F0A94E2F7422B84
:100C10004083EE89FF8920810F8C02C0880F991FC5
:100C20000A94E2F7809582238083DF91CF91FF9031
:100C3000EF90DF90CF90089510923D0110923C010B
:100C400088EE93E0A0E0B0E080933E0190933F01F6
:100C5000A0934001B09341018EE191E090933B015C
:100C600080933A0180EA91E0909347018093460196
:100C70008CE591E0909349018093480185EC90E0E8
:100C800090934B0180934A0184EC90E090934D0146
:100C900080934C0180EC90E090934F0180934E0143
:100CA00081EC90E0909351018093500182EC90E0B0
:100CB000909353018093520186EC90E090935501FC
:100CC0008093540184E08093560183E08093570120
:100CD00087E08093580185E08093590181E08093FB
:100CE0005A0108956F927F928F929F92AF92BF9216
:100CF000CF92DF92EF92FF920F931F93CF93DF93E8
:100D0000EC01CB01209781F4DF91CF911F910F91DE
:100D1000FF90EF90DF90CF90BF90AF909F908F901B
:100D20007F906F900C945B07FE01E60FF71F9E010A
:100D300022503109E217F30708F4ACC0D9010D9134
:100D40001C91119706171707B8F00530110508F424
:100D50009FC0A801445051094617570708F498C08E
:100D600002501109061B170B019311936D937C938D
:100D7000CF010E94F3078CC05B01A01AB10A4E019B
:100D8000800E911EA091E601B091E701612C712CBB
:100D900060E070E0109709F449C0A815B905C9F5DD
:100DA000ED90FC901197670142E0C40ED11CCA146B
:100DB000DB0478F147018A189B08640142E0C40E05
:100DC000D11C1296BC9012971396AC91B5E0CB163D
:100DD000D10440F0B282A38391828082D9018D93A5
:100DE0009C9309C00E5F1F4F0E0D1F1DF90111834B
:100DF0000083EB2DFA2F6115710531F0DB0113969D
:100E0000FC93EE93129744C0F093E701E093E60160
:100E10003FC06D917C9111976616770608F43B01EF
:100E2000BD0112960D90BC91A02DB4CF6091E4014C
:100E30007091E50168157905E9F468167906D0F432
:100E400040910001509101014115510541F44DB708
:100E50005EB76091040170910501461B570BE417C2
:100E6000F507C0F4F093E501E093E401F901918303
:100E700080830EC00E945B077C01009759F0A80197
:100E8000BE010E948508CE010E94F307C70104C07D
:100E9000CE0102C080E090E0DF91CF911F910F91D1
:100EA000FF90EF90DF90CF90BF90AF909F908F908A
:100EB0007F906F900895CF93DF938230910510F467
:100EC00082E090E0E091E601F091E70120E030E07F
:100ED000A0E0B0E0309739F14081518148175907BF
:100EE000B8F04817590771F482819381109729F05F
:100EF00013969C938E9312972CC09093E701809346
:100F0000E60127C02115310531F04217530718F0CB
:100F1000A901DB0101C0EF019A01BD01DF010280DF
:100F2000F381E02DD7CF21153105F9F0281B390BBE
:100F30002430310580F48A819B816115710521F08F
:100F4000FB019383828304C09093E7018093E601C1
:100F5000FE01329644C0FE01E20FF31F819391938C
:100F600022503109398328833AC02091E40130911D
:100F7000E501232B41F420910201309103013093CC
:100F8000E5012093E4012091000130910101211538
:100F9000310541F42DB73EB7409104015091050150
:100FA000241B350BE091E401F091E501E217F30712
:100FB000A0F42E1B3F0B2817390778F0AC014E5FC9
:100FC0005F4F2417350748F04E0F5F1F5093E50120
:100FD0004093E4018193919302C0E0E0F0E0CF01FF
:100FE000DF91CF910895CF93DF93009709F487C0E5
:100FF000FC01329713821282C091E601D091E70181
:10100000209781F420813181280F391F8091E401DC
:101010009091E5018217930779F5F093E501E0934C
:10102000E4016DC0DE0120E030E0AE17BF0750F4F0
:1010300012964D915C9113979D014115510509F14F
:10104000DA01F3CFB383A28340815181840F951FCE
:101050008A179B0771F48D919C911197840F951FAE
:1010600002969183808312968D919C91139793831E
:1010700082832115310529F4F093E701E093E6011D
:101080003EC0D9011396FC93EE9312974D915D915A
:10109000A40FB51FEA17FB0779F480819181840FB3
:1010A000951F0296D90111969C938E93828193810C
:1010B00013969C938E931297E0E0F0E08A819B81D7
:1010C000009719F0FE01EC01F9CFCE0102962881BC
:1010D0003981820F931F2091E4013091E501281797
:1010E000390769F4309729F41092E7011092E6016C
:1010F00002C013821282D093E501C093E401DF9114
:10110000CF910895F8940C94C608FB01DC0102C04D
:1011100001900D9241505040D8F70895FB01DC0139
:101120008D91019080190110D9F3990B0895FB015D
:10113000DC0101900D920020E1F70895A1E21A2E42
:10114000AA1BBB1BFD010DC0AA1FBB1FEE1FFF1F6B
:10115000A217B307E407F50720F0A21BB30BE40BBB
:10116000F50B661F771F881F991F1A9469F7609502
:101170007095809590959B01AC01BD01CF010895BC
:10118000EE0FFF1F0590F491E02D099410E0CCEBD9
:10119000D0E004C0FE010E94C2082296CE3BD107D7
:0611A000C9F7F894FFCF2F
:1011A6000000E8018000314F4E0031204F6E0031C3
:1011B6004F46460031204F66660000000000DF04FF
:0A11C6006B028B04B4049B04D404F4
:00000001FF
